:020000040000FA
:100000000C945D080C9411350C94E6340C94BB34BC
:100010000C9490340C9465340C943A340C940F3452
:100020000C94E4330C948E080C948E080C948E0877
:100030000C948E080C948B360C948E080C948E08BD
:100040000C948E080C948E080C948E080C948E08D8
:100050000C9460360C948E080C948E080C949A3391
:100060000C948E080C9470330C9446330C948E08C8
:100070000C948E080C948E080C948E080C948E08A8
:100080000C948E080C948E080C948E080C948E0898
:100090000C948E080C948E080C948E080C943C35AD
:1000A0000C948E080C948E080C948E080C948E0878
:1000B0000C948E080C948E080C948E080C948E0868
:1000C0000C948E080C948E080C948E080C941C339F
:1000D0000C94F2320C948E080C94C8320C949E321C
:1000E0000C948E080C94B4420C9448280C94280963
:1000F0000C94DA250C940B440C94AB290C94110E3F
:100100000C940E260C940B450C947D430C944F0AD2
:100110000C94C6270C94F90A0C94C9290C94AD0DC3
:100120000C94DE0A0C94E8270C9458430C94810D2F
:100130000C94DA0A0C9437090C94B2420C94E20A3B
:100140000C9404450C9411440C9447290C940F0B07
:100150000C94F9440C9427280C94FF270C94012646
:100160000C94A8290C94010B0C94D40A0C94F84319
:100170000C9469430C94930D0C94D1290C94C808E9
:100180000C94E2080C94820D0C940B370C94FD0A2D
:100190000C94E90A0C94FF0B0C94B3290C940912EB
:1001A0000C94EF0A0C94FA420C94F30A0C94C825B0
:1001B0000C9478280C94A7280C94B4090C94150B73
:1001C0000C94B0420C9493460C94A5290C94140BF7
:1001D0000C94BE290C94B8420C94830D0C94840D9D
:1001E0000C94F4250C943F290C94A4270C94C12959
:1001F0000C94DA0D0C94A60D0C94B4250C94354493
:100200000C94AA440C94D3430C94E60A0C94190B56
:100210000C94A6090C940B0B0C940E0E0C94B6299E
:100220000C94B6420C94000A0C94070B0C94E7252E
:100230000C94CF4100002100240027002A002D004B
:100240003000330001010000040107010A01000031
:100250002200250028002B002E003100340002016E
:100260000000050108010B0100002000230026000A
:1002700029002C002F0032000001000003010601BC
:10028000090105050505070508080808020202021C
:100290000A0A080804040404010101010101010122
:1002A0000303030303030303040707070C0C0C0CED
:1002B0000C0C0C0C020202020606060606060606D6
:1002C0000B0B0B0B0B0B0B0B010210202008081063
:1002D00020401020408002010201080402010102B6
:1002E000040810204080804020100804020180048F
:1002F00002018040201008040201080402010102EA
:1003000004081020408001020408102040800000F2
:100310000A0B02090C0D0E0807030401000000007F
:1003200000000000000000000000000000000000CD
:10033000000000000000000000001211100000008A
:1003400000000000000000000000000000000000AD
:10035000000000000000000000000000000000009D
:10036000000000000000000000001FCC000C000096
:1003700000000000000008003000600008003000AD
:1003800060000000022003FC1E20022003FC1E204F
:100390000220000000000E1811043FFF10840C78AA
:1003A000000000000F0010840F3800C00778188488
:1003B0000078000000780F8410C411240E9800E427
:1003C00000840008080068007000000000000000C1
:1003D0000000000000000000000007E018182004E2
:1003E00040020000000040022004181807E000004E
:1003F000000000000240024001800FF00180024036
:10040000024000000080008000800FF80080008023
:10041000008000000001000D000E00000000000040
:10042000000000000000008000800080008000804C
:10043000008000800000000C000C000000000000A4
:1004400000000000000000060018006001800600A7
:1004500018002000000007F0080810041004080825
:1004600007F000000000080408041FFC000400045A
:100470000000000000000E0C101410241044118421
:100480000E0C000000000C18100411041104128856
:100490000C700000000000E00320042408241FFC6E
:1004A0000024000000001F9810841104110410881B
:1004B00010700000000007F008881104110418886B
:1004C0000070000000001C00100010FC13001C0055
:1004D0001000000000000E381144108410841144F4
:1004E0000E38000000000700088C104410440888F3
:1004F00007F00000000000000000030C030C0000E7
:1005000000000000000000000001010600000000E3
:1005100000000000000000800140022004100808D4
:1005200010040000022002200220022002200220EB
:1005300002200000000010040808041002200140FE
:100540000080000000000E001200100C106C1080E3
:100550000F00000003E00C1813E4142417C408284B
:1005600007D000000004003C03C41C40074000E426
:10057000001C000410041FFC1104110411040E8857
:100580000070000003E00C181004100410041008A0
:100590001C10000010041FFC1004100410040808B4
:1005A00007F0000010041FFC1104110417C410040C
:1005B0000818000010041FFC1104110017C01000DF
:1005C0000800000003E00C181004100410441C780C
:1005D0000040000010041FFC108400800080108484
:1005E0001FFC10040000100410041FFC1004100471
:1005F0000000000000030001100110011FFE1000A8
:100600001000000010041FFC110403801464181C67
:100610001004000010041FFC100400040004000477
:10062000000C000010041FFC1F0000FC1F001FFC3A
:100630001004000010041FFC0C04030000E010185C
:100640001FFC100007F0080810041004100408082C
:1006500007F0000010041FFC108410801080108030
:100660000F00000007F0081810241024101C080ABE
:1006700007F2000010041FFC1104110011C011301A
:100680000E0C000400000E1C110410841084104491
:100690001C3800001800100010041FFC100410008B
:1006A0001800000010001FF81004000400041004DB
:1006B0001FF8100010001E0011E0001C00701380D5
:1006C0001C0010001FC0103C00E01F0000E0103CA8
:1006D0001FC000001004180C163401C001C01634ED
:1006E000180C100410001C00130400FC13041C0060
:1006F000100000000804101C1064108413041C0473
:10070000101800000000000000007FFE40024002C0
:1007100040020000000030000C0003800060001C5C
:100720000003000000004002400240027FFE000083
:1007300000000000000000002000400040004000D9
:100740002000000000010001000100010001000183
:1007500000010001000040004000200000000000F7
:1007600000000000000000980124014401440144FD
:1007700000FC000410001FFC008801040104008834
:1007800000700000000000700088010401040104F2
:1007900000880000000000700088010401041108B6
:1007A0001FFC0004000000F801440144014401441E
:1007B00000C800000000010401040FFC1104110432
:1007C00011001800000000D601290129012901C9E2
:1007D0000106000010041FFC008401000100010458
:1007E00000FC000400000104190419FC00040004CA
:1007F000000000000000000300010101190119FEC2
:100800000000000010041FFC0024004001B4010C93
:10081000010400000000100410041FFC0004000488
:1008200000000000010401FC0104010001FC0104BE
:10083000010000FC010401FC00840100010001042E
:1008400000FC0004000000F801040104010401049C
:1008500000F80000010101FF008501040104008887
:100860000070000000000070008801040104010510
:1008700001FF00010104010401FC008401040100E6
:1008800001800000000000CC012401240124012487
:100890000198000000000100010007F801040104B4
:1008A00000000000010001F8000400040004010839
:1008B00001FC0004010001800170000C00100160C7
:1008C0000180010001F0010C003001C00030010C7A
:1008D00001F0010000000104018C00740170018C22
:1008E00001040000010101810171000E0018016086
:1008F0000180010000000184010C013401440184E5
:10090000010C0000000000000000000001003EFC9F
:10091000400240020000000000000000FFFF000055
:10092000000000000000400240023EFC0100000008
:1009300000000000000060008000800040004000D7
:100940002000200000000000000000000000000067
:10095000000000003F4000000000000000003000E8
:10096000400030004000000009000BC03D000BC0FB
:100970003D00090018C024407FE022403180000083
:10098000180024C01B000D803240018003801C40F1
:1009900027401C800740004010006000000000005D
:1009A000000000000000000000001F8020404020E8
:1009B0000000402020401F800000000009000600C9
:1009C0001F80060009000000040004003F800400AE
:1009D00004000000001000600000000000000000A3
:1009E00004000400040004000400000000000040B3
:1009F0000000000000000000002001C006003800D8
:100A0000400000001F802040204020401F80000048
:100A1000000010403FC000400000000018C021400E
:100A200022402440184000001080204024402440F0
:100A30001B80000002000D0011003FC001400000BB
:100A40003C80244024402440238000001F80244018
:100A500024403440038000003000200027C03800CC
:100A6000200000001B802440244024401B80000004
:100A70001C0022C0224022401F8000000000000015
:100A800008400000000000000000000004600000BA
:100A900000000000000004000A0011002080404017
:100AA0000900090009000900090000000000404099
:100AB000208011000A0004001800200023402400B8
:100AC000180000001F802040274029401F400000E0
:100AD000004007C039000F0001C0004020403FC067
:100AE000244024401B8000001F80204020402040E4
:100AF0003080000020403FC0204020401F80000088
:100B000020403FC024402E4030C0000020403FC065
:100B100024402E00300000000F00108020402240B2
:100B20003380020020403FC0040004003FC020404A
:100B3000204020403FC02040204000000060202096
:100B400020203FC02000200020403FC024400B0058
:100B500030C0204020403FC020400040004000C046
:100B60003FC03C0003C03C003FC0000020403FC0ED
:100B70000C4023003FC020001F8020402040204028
:100B80001F80000020403FC02440240018000000C7
:100B90001F802140214020E01FA0000020403FC0D6
:100BA0002440260019C0004018C0244024402240A0
:100BB00031800000300020403FC020403000000065
:100BC00020003F80004000403F80200020003E0089
:100BD00001C0070038002000380007C03C0007C0F3
:100BE00038000000204039C0060039C02040000015
:100BF0002000384007C0384020000000304021C0AD
:100C00002640384020C00000000000007FE0402067
:100C100040200000000070000C0003800040000035
:100C20000000402040207FE0000000000000200085
:100C30004000200000000000001000100010001014
:100C40000010001000000000400000000000000044
:100C5000000002800540054003C0004020003FC066
:100C6000044004400380000000000380044004406E
:100C70000640000000000380044024403FC00040C4
:100C800000000380054005400340000000000440D0
:100C90001FC0244024402000000002E00550055001
:100CA0000650042020403FC00440040003C0004020
:100CB0000000044027C000400000000000100010A9
:100CC000041027E00000000020403FC00140070062
:100CD00004C00440204020403FC0004000400000CD
:100CE00007C0040007C0040003C00000044007C0A0
:100CF0000440040003C0004000000380044004409E
:100D000003800000041007F004500440038000003A
:100D1000000003800440045007F00010044007C0A6
:100D200002400400040000000000064005400540A9
:100D300004C00000000004001F80044000400000C8
:100D4000040007800040044007C000400400070082
:100D500004C0018006000400060001C0070001C0B5
:100D600006000000044006C0010006C00440000068
:100D70000410071004E00180060004000000044095
:100D800005C00640044000000000000004007BE0B5
:100D900040200000000000000000FFF00000000004
:100DA000000040207BE004000000000040008000C4
:100DB0004000200020004000000000000000000073
:100DC00000005F00000000000000070007000000B6
:100DD00000147F147F14000000242A7F2A120000D0
:100DE00000231308646200000006090906000000E1
:100DF0000000050300000000001C2241000000006C
:100E00000041221C0000000000082A1C2A080000E3
:100E10000008083E0808000000A060000000000074
:100E200000080808080800000060600000000000DA
:100E30000020100804020000003E5149453E000019
:100E40000000427F40000000006251494946000016
:100E50000022414949360000001814127F1000009A
:100E60000027454545390000003C4A49493000000B
:100E700000017109050300000036494949360000A8
:100E800000064949291E0000000036360000000017
:100E90000000AC6C000000000008142241000000BB
:100EA000001414141414000000412214080000005F
:100EB000000201510906000000324979413E00005C
:100EC000007E0909097E0000007F4949493600007B
:100ED000003E414141220000007F4141221C0000B0
:100EE000007F494949410000007F090909010000CC
:100EF000003E414151720000007F0808087F000059
:100F00000000417F41000000002040413F010000FF
:100F1000007F081422410000007F40404040000054
:100F2000007F020C027F0000007F0408107F000099
:100F3000003E4141413E0000007F090909060000D2
:100F4000003E4151215E0000007F09192946000042
:100F500000264949493200000001017F01010000DB
:100F6000003F4040403F0000001F2040201F000085
:100F7000003F4038403F0000006314081463000045
:100F80000003047804030000006151494543000058
:100F9000007F414100000000000204081020000012
:100FA0000041417F00000000000402010204000033
:100FB00000808080808000000001020400000000AA
:100FC0000020545454780000007F48444438000006
:100FD000003844442800000000384444487F0000A2
:100FE000003854545418000000087E090200000024
:100FF0000018A4A4A47C0000007F0804047800006A
:1010000000007D00000000000080847D00000000E2
:10101000007F10284400000000417F4000000000D5
:10102000007C041804780000007C08047C000000A8
:10103000003844443800000000FC2424180000005C
:1010400000182424FC00000000007C0804000000BC
:10105000004854542400000000047F4400000000B5
:10106000003C40407C000000001C2040201C000090
:10107000003C4030403C0000004428102844000060
:10108000001CA0A07C000000004464544C440000FC
:10109000000836410000000000007F000000000052
:1010A00000413608000000000002010102010000BA
:1010B00000020505020000000B3711241FBECFEF10
:1010C000D1E2DEBFCDBF00E00CBF19E0A0E0B2E08E
:1010D000E0EAF9E900E00BBF02C007900D92A836E4
:1010E000B107D9F720E1A8E6B9E001C01D92AA3501
:1010F000B207E1F718E0CDE5D8E000E006C021979F
:101100000109802FFE010E949B49CC35D10780E068
:101110000807A9F70E9423380C94CE4C0C940000C9
:10112000CF93DF93EC01E885F9851995688379837E
:101130008A839B831C821D821E821F8281E08A8794
:10114000DF91CF9108953FB7F89480919D0A9091D7
:101150009E0AA0919F0AB091A00A26B5A89B05C03F
:101160002F3F19F00196A11DB11D3FBFBA2FA92F26
:10117000982F8827BC01CD01620F711D811D911D23
:1011800042E0660F771F881F991F4A95D1F708958F
:101190002FB7F8946091990A70919A0A80919B0AEE
:1011A00090919C0A2FBF08950E94C80828EE33E052
:1011B00040E050E00E943249CA01B90108958CBD57
:1011C0009DBD0895AF92BF92CF92DF92EF92FF92B2
:1011D0000F931F93CF93DF936C017B018B01040F5F
:1011E000151FEB015E01AE18BF08C017D10759F0FB
:1011F0006991D601ED91FC910190F081E02DC6013D
:101200001995892B79F7C501DF91CF911F910F9126
:10121000FF90EF90DF90CF90BF90AF900895FC01CA
:10122000A089B1898C91A689B78982FD0FC09C9154
:10123000818D8F5F8F73228D821749F0A18DAE0F44
:10124000BF2FB11D5D969C93818F08958C91089559
:10125000FC01538D448D252F30E0842F90E0821BBC
:10126000930B541710F0CF96089501970895FC0141
:10127000918D828D981761F0A28DAE0FBF2FB11D99
:101280005D968C91928D9F5F9F73928F90E00895F1
:101290008FEF9FEF08958F929F92AF92BF92CF9260
:1012A000DF92EF92FF920F931F93CF93DF936B0127
:1012B0009AEBE92E9DE0F92ED0E0C0E0082F880FD0
:1012C000110B0E94C8086093EB0D7093EC0D809396
:1012D000ED0D9093EE0D83EE9DE00E94370997FF90
:1012E00029C00E94C8088090EB0D9090EC0DA09052
:1012F000ED0DB090EE0D681979098A099B0980906F
:10130000E70D9090E80DA090E90DB090EA0D6815FA
:1013100079058A059B05F8F2CE01DF91CF911F91E7
:101320000F91FF90EF90DF90CF90BF90AF909F9084
:101330008F9008950817190779F3F70181937F01BA
:101340002196CC16DD0609F0BCCFE6CFFC01918DCD
:10135000828D981731F0828DE80FF11D858D90E018
:1013600008958FEF9FEF0895FC01918D228D892FB5
:1013700090E0805C9F4F821B91098F73992708959D
:1013800083EE9DE00E94B40921E0892B09F420E05E
:10139000822F089580E89EE00E94B40921E0892B05
:1013A00009F420E0822F08958DE19FE00E94B409A6
:1013B00021E0892B09F420E0822F0895FC01A48DFF
:1013C000A80FB92FB11DA35ABF4F2C91848D90E067
:1013D00001968F739927848FA689B7892C93A0894A
:1013E000B1898C91837080648C93938D848D9813D4
:1013F00006C00288F389E02D80818F7D8083089567
:10140000EF92FF920F931F93CF93DF93EC0181E054
:10141000888F9B8D8C8D98131AC0E889F9898081FB
:1014200085FF15C09FB7F894EE89FF896083E8892E
:10143000F98980818370806480839FBF81E090E020
:10144000DF91CF911F910F91FF90EF900895F62EAD
:101450000B8D10E00F5F1F4F0F731127E02E8C8D47
:101460008E110CC00FB607FCFACFE889F98980818C
:1014700085FFF5CFCE010E94DE09F1CFEB8DEC0F99
:10148000FD2FF11DE35AFF4FF0829FB7F8940B8FA9
:10149000EA89FB8980818062CFCF0C94000ACF93C8
:1014A000DF93EC01888D8823B9F0AA89BB89E8898C
:1014B000F9898C9185FD03C0808186FD0DC00FB632
:1014C00007FCF7CF8C9185FFF2CF808185FFEDCFB0
:1014D000CE010E94DE09E9CFDF91CF910895CF932D
:1014E000DF93EC010E944F0AEA89FB8980818F7E9D
:1014F0008083EA89FB898081877F8083EA89FB89F1
:1015000080818F778083EA89FB8980818F7D8083CA
:101510008A8D898FDF91CF91089580E090E0892BAB
:1015200029F00E94D40981110E94000080E090E01F
:10153000892B49F080E090E0892B29F00E9400007F
:1015400081110E94000080E090E0892B29F00E9428
:10155000CA0981110E94000080E090E0892B29F0E7
:101560000E94C00981110C940000089581508231BD
:1015700008F05AC0E82FF0E08827EE53F54F8F4F60
:101580000C949B49E20AE60AD40ADA0ADE0A140B32
:10159000E90AEF0AF30AF90AFD0A010B070B0B0B24
:1015A000140B0F0B150B190B809180008F77809314
:1015B00080000895809180008F7DF9CF8091800018
:1015C000877FF5CF84B58F7784BD089584B58F7DEF
:1015D000FBCF8091B0008F778093B0000895809109
:1015E000B0008F7DF9CF809190008F77809390002D
:1015F0000895809190008F7DF9CF80919000877F32
:10160000F5CF8091A0008F778093A00008958091FE
:10161000A0008F7DF9CF8091A000877FF5CF8091CA
:1016200020018F77809320010895809120018F7D84
:10163000F9CF80912001877FF5CFCF93DF93282FBB
:1016400030E0F901E25FFC4F8491F901E853FD4F6E
:10165000D491F901EE57FD4FC491CC23A1F0811133
:101660000E94B60AEC2FF0E0EE0FFF1FE859FD4F85
:10167000A591B491EC91ED2381E090E009F480E034
:10168000DF91CF91089580E090E0FACF1F93CF9340
:10169000DF93282F30E0F901E25FFC4F8491F901DC
:1016A000E853FD4FD491F901EE57FD4FC491CC237F
:1016B000A9F0162F81110E94B60AEC2FF0E0EE0F70
:1016C000FF1FE25BFD4FA591B4918FB7F894EC91A9
:1016D000111108C0D095DE23DC938FBFDF91CF912D
:1016E0001F910895DE2BF8CFCF93DF9390E0FC019C
:1016F000E853FD4F24918E579D4FFC018491882320
:10170000C9F090E0880F991FFC01EC5CFD4FA5919A
:10171000B491FC01E25BFD4FC591D49161110DC004
:101720009FB7F8948C91209582238C9388812823ED
:1017300028839FBFDF91CF910895623051F49FB706
:10174000F8943C91822F809583238C93E8812E2BF3
:10175000EFCF8FB7F894EC912E2B2C938FBFEACF5D
:1017600090917B00986090937B002091120290E40E
:10177000299F900111248770822B80937C00809197
:101780007A00806480937A0080917A0086FDFCCF95
:10179000809178009091790008958F929F92AF92F6
:1017A000BF92CF92DF92EF92FF924B015C010E94B9
:1017B000A3086B017C010E94A3086C197D098E09A6
:1017C0009F09683E734081059105A8F321E0821AC4
:1017D0009108A108B10888EEC80E83E0D81EE11C6C
:1017E000F11C81149104A104B10429F7FF90EF903A
:1017F000DF90CF90BF90AF909F908F900895089505
:10180000CF92DF92EF92FF920F931F93CF93DF93CC
:10181000EC01CC80DD80EE80FF802A8560E070E006
:10182000CB01222359F0E885F985199508811981A2
:101830002A813B81601B710B820B930B6C0D7D1D0C
:101840008E1D9F1DDF91CF911F910F91FF90EF9003
:10185000DF90CF9008952091730A260F3327331F0E
:1018600021323105ECF42091900DFC0190E080E0F4
:10187000243069F082E00895A091730A2191AC01AF
:101880004F5A554FA40FB52FB11D2C9301968617B3
:1018900098F38091730A680F6093730A80E008954B
:1018A00081E008951092900D81E080938F0D109249
:1018B0006A0D61E084E10E94460B61E085E10E94CF
:1018C000460BE9EBF0E080818E7F808380818D7F05
:1018D000808388E48093B80085E48093BC000895F9
:1018E000CF93DF9391E09093500A8823B9F0C09191
:1018F000B800D091BA008091BC008A7B8093BC0074
:1019000060E084E10E94460B60E085E10E94460BA6
:101910000E94520CD093BA00C093B800DF91CF91CF
:1019200008958F929F92AF92BF92CF92DF92EF92E3
:10193000FF920F931F93CF93DF93D091B90DD132C4
:1019400008F0D7C0182FC091B80D0E94A3086B01F2
:101950007C018091900D81116BC082E08093900D8D
:1019600010938F0D8FEF80938E0D10928D0DD0936D
:101970008C0DA8E9BDE0ECE6FDE080E0D81391C055
:1019800010926B0D80916B0DCC0FC82BC0936B0D1B
:1019900080916A0D813009F088C010926A0D0E9412
:1019A000A3086B017C0180916B0D8093BB0080913B
:1019B000920D9091930DA091940DB091950D892B5E
:1019C0008A2B8B2BA1F00E94A3080091920D1091FD
:1019D000930D2091940D3091950D6C197D098E0910
:1019E0009F09061717072807390708F442C0809196
:1019F000BC0083FDD8CF85EC8093BC000E94A30877
:101A00006B017C018091900D823009F450C080916F
:101A10008E0D8F3F09F46FC080918E0D803209F4D6
:101A20006CC080918E0D803309F469C084E026C0BB
:101A30008091920D9091930DA091940DB091950D80
:101A4000892B8A2B8B2B09F484CF0E94A3088090CA
:101A5000920D9090930DA090940DB090950D6C19EF
:101A60007D098E099F0986169706A806B90608F013
:101A700070CF8091910D0E94700C85E01092970DAF
:101A80001092B90D1092960DDF91CF911F910F9189
:101A9000FF90EF90DF90CF90BF90AF909F908F908E
:101AA00008959D9191938F5F69CF85EEA5CF809129
:101AB000920D9091930DA091940DB091950D892B5D
:101AC0008A2B8B2B09F49ECF0E94A3080091920DC4
:101AD0001091930D2091940D3091950D6C197D0905
:101AE0008E099F09061717072807390708F08ACFBC
:101AF000C0CF81E0C3CF80E0C1CF82E0BFCF83E021
:101B0000BDCF089508950895E091490D8091480D45
:101B1000E81730F4F0E0E65BF24F808190E0089542
:101B20008FEF9FEF08959091490D8091480D2FEF11
:101B30003FEF981748F4E92FF0E0E65BF24F208181
:101B400030E09F5F9093490DC90108958091480D41
:101B50009091490D891B990B0895CF92DF92EF92D6
:101B6000FF920F931F93CF93DF937C01CB018A01E8
:101B70002091960D222389F0EB016B01C40ED51E36
:101B8000CC15DD0569F06991D701ED91FC910190CB
:101B9000F081E02DC7011995F3CF642F0E942B0C23
:101BA000C801DF91CF911F910F91FF90EF90DF90CF
:101BB000CF900895CF93DF931F92CDB7DEB769839F
:101BC0002091960D2223F9F02091B90D203258F082
:101BD00021E030E0FC013383228390E080E00F902D
:101BE000DF91CF9108958091970DE82FF0E0E856AE
:101BF000F24F998190838F5F8093970D8093B90DF9
:101C000081E090E0ECCF61E0CE0101960E942B0CC8
:101C1000F7CF682F8AEB9FE00C94DA0D90E080E01C
:101C200008950895FC01E61BF70B681779071CF06F
:101C3000FB01E81BF90B9C01241B350B48175907C6
:101C40001CF09A01281B390BDA01A61BB70B64178D
:101C500075071CF0DB01A41BB50B2E173F075CF0CA
:101C6000AE17BF072CF0860F971F9595879508959F
:101C7000E217F3072CF0840F951FA217B307ACF7F8
:101C8000640F751FCB01F1CF0CB405FC0DC09EBDD8
:101C900000000DB407FEFDCF9EB58EBD00000DB453
:101CA00007FEFDCF8EB508958EBD00000DB407FE72
:101CB000FDCF8EB59EBD00000DB407FEFDCF9EB5D5
:101CC000089560E08BE10E94460B60E08DE10E9488
:101CD000460B80E991E09093140D8093130D1092C0
:101CE000110D1092100D08954F925F926F927F9296
:101CF0008F929F92AF92BF92CF92DF92EF92FF921C
:101D00000F931F93CF93DF9300D000D0CDB7DEB7F2
:101D10009E838D832A013B01FC01008511856801AA
:101D2000F12CE12C8285882309F455C080809180B4
:101D3000A280B380A7019801281939094A095B09D3
:101D400064817581868197810E946349A70198010A
:101D50000E94004929833A834B835C83A501940147
:101D6000C301B2010E94634989809A80AB80BC8024
:101D7000860E971EA81EB91EED81FE818482958273
:101D8000A682B78216950795ED81FE8164817581E3
:101D900086819781600F711F811D911DA70196019A
:101DA0000E940049CA01B90126960FB6F894DEBF19
:101DB0000FBECDBFDF91CF911F910F91FF90EF909C
:101DC000DF90CF90BF90AF909F908F907F906F905B
:101DD0005F904F900895AB019201C701B8010E9436
:101DE0006349ED81FE81648375838683978381E0F7
:101DF0008287C8CF8F929F92AF92BF92CF92DF928D
:101E0000EF92FF9281112AC08091470D81110BC082
:101E100090E080E0FF90EF90DF90CF90BF90AF9088
:101E20009F908F9008958FE00E94B00B039784F3EA
:101E30006091300D7091310D90E080E0625E7F4FD7
:101E40008F4F9F4F9B01AC010E94634929E233E011
:101E500040E050E00E940049C901DCCF8130E1F44C
:101E60008091470D8823A1F28FE00E94B00B039769
:101E70007CF260912A0D70912B0D90E080E0645708
:101E80007F4F8F4F9F4F9B01AC010E9463492CED08
:101E900039E240E050E0DECF8230D1F48091260D6F
:101EA0009091270D892B09F4B3CF6091260D709185
:101EB000270D90E080E0625E7F4F8F4F9F4F9B0128
:101EC000AC010E9463492CE63AE240E050E0C2CF08
:101ED0008091470D882309F49BCF8091300D90911C
:101EE000310D8436910508F493CF80912A0D90919D
:101EF0002B0D059708F45DC02091300D3091310D08
:101F0000E0902A0DF0902B0DE091300DF091310D05
:101F100040912A0D50912B0DA4E6B0E00E94544947
:101F20004B015C019701AEE1B0E00E945449860E7E
:101F3000971EA81EB91E80EF880E8AE0981EA11C6D
:101F4000B11C9F01AAE0B0E00E9454496B017C01E2
:101F5000DA012DEF3FEF4FEF5FEF0E941F49A7011E
:101F60009601260F371F481F591F2851314041093C
:101F70005109C501B4010E940049BA01A90182EDCD
:101F80009FE00E94740E9B01AC012436310541058F
:101F9000510524F023E630E040E050E02A303105DE
:101FA000410551050CF058CF2AE030E040E050E008
:101FB00053CF8AE090E02ECF8091480A81115EC015
:101FC0001092330D1092320D2AE936ED3093C80C81
:101FD0002093C70C88E292E49093B80A8093B70AE2
:101FE0003093BA0A2093B90A80EE97E09093020DDD
:101FF0008093010D30933A0A2093390A60EE7FEF07
:102000007093BC0A6093BB0A20E038EF3093380A23
:102010002093370A10923E0A10923D0AEFEFFFEF2D
:10202000F0933C0AE0933B0A10920C0D10920B0DBA
:1020300090930A0D8093090D3093050D2093040DA4
:102040009093440A8093430A4FE150E05093400A32
:1020500040933F0AF093260AE093250A90933E0DA1
:1020600080933D0D70933A0D6093390D3093380D88
:102070002093370D5093240A4093230A8091480AF5
:10208000813009F060C01092330D1092320D80E063
:1020900098EF9093C80C8093C70C40E058E550939C
:1020A000B80A4093B70A9093BA0A8093B90A20E815
:1020B00032E03093020D2093010D50933A0A409381
:1020C000390A41E256EC5093BC0A4093BB0A109285
:1020D000380A1092370A10923E0A10923D0A67E0C1
:1020E0007CEF70933C0A60933B0A10920C0D1092A7
:1020F0000B0D60EE77E070930A0D6093090D9093DD
:10210000050D8093040D3093440A2093430A6CE438
:1021100070E07093400A60933F0A9093260A809380
:10212000250A30933E0D20933D0D50933A0D409378
:10213000390D9093380D8093370D80EE9FEF90937B
:10214000240A8093230A8091480A823009F060C0F3
:102150001092330D1092320D2BE43BE63093C80CF5
:102160002093C70C88E49AE49093B80A8093B70A46
:102170003093BA0A2093B90A20E832E03093020D76
:102180002093010D90933A0A8093390A41E256EC6C
:102190005093BC0A4093BB0A1092380A1092370A37
:1021A00010923E0A10923D0A90933C0A80933B0A9B
:1021B00010920C0D10920B0D80EE97E090930A0D8B
:1021C0008093090D80E098EF9093050D8093040DA6
:1021D0003093440A2093430A6CE470E07093400A01
:1021E00060933F0A9093260A8093250A30933E0D10
:1021F00020933D0D50933A0D4093390D9093380D37
:102200008093370D80EE9FEF9093240A8093230AEA
:102210000895813041F028F08230D1F0833049F1C7
:1022200008950C94610E61E08BE10E94460B60E022
:102230008DE10E94460B84EF91E09093140D809302
:10224000130D8CE791E09093110D8093100D08957C
:1022500060E08BE10E94460B61E08DE10E94460B3D
:1022600086E292E09093140D8093130D84EA91E03E
:10227000EACF61E08BE10E94460B61E08DE10E94B4
:10228000460B84EC99E09093140D8093130D86E235
:1022900092E0D9CFF8948BE00E94B00B7894883804
:1022A0009105FCF08F3B9105F4F0863F9105ECF031
:1022B0008C3221E09207DCF0833621E09207CCF0EB
:1022C0008A3921E09207BCF0813D21E09207ACF011
:1022D000883022E092079CF08E33924094F081E0A7
:1022E00008958AE0089589E0089588E0089587E0D8
:1022F000089586E0089585E0089584E0089583E0D8
:10230000089582E00895F8948BE00E94B00B9C0140
:102310007894863791054CF183589109853491055D
:1023200030F1825591098534910518F18355910951
:102330008534910500F18555910985349105E8F0C2
:102340008255910985349105D0F0835591098534E2
:102350009105B8F08555910985349105A0F081E08B
:102360002C3033408CF080E008958AE0089589E0B5
:10237000089587E0089586E0089585E0089584E053
:10238000089583E0089582E00895F8948BE00E9418
:10239000B00B78948236910564F19C012556310981
:1023A0002B33310540F1205431092C33310528F10C
:1023B000215431092733310510F12C5331092733CA
:1023C0003105F8F02C5331092C333105E0F021545C
:1023D00031092C333105C8F0215431092C31310534
:1023E000B0F02152310981E02C35310588F080E0D0
:1023F00008958AE0089589E0089587E0089586E0C9
:10240000089585E0089584E0089583E0089582E0CA
:102410000895A895089508958EBD00000DB407FE97
:10242000FDCF8EB50895CF93C82F662399F0409ABB
:10243000F8948091E20D81110FC042988CE591E0F3
:102440000E94DF088C2F0E940C12429A289A7894DE
:10245000CF9108954098ECCF2898F0CFCF93C62F16
:1024600060E00E94131261E08C2FCF910C94131244
:102470001F93CF93DF93182FEB01692F82E00E9407
:102480002E12612F83E00E942E126D2F86E00E9493
:102490002E126C2F87E0DF91CF911F910C942E129A
:1024A000CF93DF93813421E0920720F5613F7105DE
:1024B00008F5EA019B01BC0180EF90E0821B930BC1
:1024C0000E94381260E082E20E941312409AF8944F
:1024D0008091E20D811111C042988CE591E00E943B
:1024E000DF088D2F0E940C128C2F0E940C12429A32
:1024F000289A7894DF91CF9108952898EECF8F9203
:102500009F92AF92BF92CF92DF92EF92FF920F9382
:102510001F93CF93DF935C01EB017901E60EF71E69
:102520006A01C80ED91ECE15DF0579F045018C145D
:102530009D0449F0A801BE01C4010E9450128FEF12
:10254000881A980AF4CF2196EECFDF91CF911F9190
:102550000F91FF90EF90DF90CF90BF90AF909F9042
:102560008F9008952F923F924F925F926F927F9239
:102570008F929F92AF92BF92CF92DF92EF92FF9293
:102580000F931F93CF93DF9300D000D000D01F9202
:10259000CDB7DEB76B01342E252E7901280126E058
:1025A0002E9DA0012F9D500D11245C834B839A8397
:1025B0008983E981FA818191FA83E983882309F487
:1025C0005EC090EE980F903608F08FE38052990B22
:1025D00023E0880F991F2A95E1F74601B12CA12C21
:1025E0009C012854324F3E832D83ED81FE81EA0DFC
:1025F000FB1DE49139862A86712C612C4E2F50E008
:1026000058874F838F819885062C02C095958795B2
:102610000A94E2F780FF11C050E4851651E0950658
:1026200060F489859A85803F910538F4820197018D
:10263000A701BC01C4010E947F129FEF691A790AA9
:10264000E985FA85EE0DFF1DFA87E987F8E06F1638
:102650007104C1F62FEFA21AB20A8E0C9F1C38E04B
:10266000A316B10409F0C1CF4FE3C41641E0D4066C
:1026700008F09FCF8B819C81C80ED91E9ACF2A96D5
:102680000FB6F894DEBF0FBECDBFDF91CF911F9183
:102690000F91FF90EF90DF90CF90BF90AF909F9001
:1026A0008F907F906F905F904F903F902F90089504
:1026B000FF920F931F93CF93DF93F82EEB0180913E
:1026C000420D811139C081E08093E20DE091560204
:1026D000F0E0E75DFD4F8081813021F4C091430A35
:1026E000D091440AE0915602F0E0E75DFD4F808111
:1026F000823021F4C0913F0AD091400A0091320DFE
:102700001091330D25E130E040E550E065E170E0E7
:1027100084EE90E00E947F12F11014C00091B70A7D
:102720001091B80A23E030E045E150E064EE70E03B
:1027300083EB94E00E94B212DF91CF911F910F9131
:10274000FF90089581E0F8120AC08E0123E030E086
:1027500045E150E064EE70E087EB94E0EBCF82E07F
:10276000F8120AC08E0123E030E045E150E064EE4B
:1027700070E08BEB94E0DECF83E0F8120AC08E01AC
:1027800023E030E045E150E064EE70E08FEB94E050
:10279000D1CF84E0F8120AC08E0123E030E045E199
:1027A00050E064EE70E083EC94E0C4CF85E0F81272
:1027B0000AC08E0123E030E045E150E064EE70E0B5
:1027C00087EC94E0B7CF86E0F8120AC08E0123E0D0
:1027D00030E045E150E064EE70E08BEC94E0AACF8D
:1027E00087E0F8120AC08E0123E030E045E150E0B6
:1027F00064EE70E08FEC94E09DCF88E0F8120AC0A0
:102800008E0123E030E045E150E064EE70E088EDB9
:1028100094E090CF89E0F8120AC08E0123E030E006
:1028200045E150E064EE70E083ED94E083CF8AE010
:10283000F81282CF8E0123E030E045E150E064EEF3
:1028400070E087ED94E076CFFF920F931F93CF93C4
:10285000DF938091420D81117EC081E08093E20D73
:10286000F090400DF11005C08091D90C882309F437
:102870004AC081E08093D90C08E212E420E130E004
:1028800044E250E06AE070E08EE890E00E947F123F
:10289000C091320DD091330DFF2059F08E0123E00D
:1028A00030E045E150E064E270E08CED94E00E949D
:1028B000B2128E0123E030E045E150E064E270E0C6
:1028C0008FED94E00E94B21268EC70E080E090E03E
:1028D0000E94CD0B0091370D1091380D23E030E0B0
:1028E00045E150E064E270E08FED94E00E94B212A6
:1028F00068EC70E080E090E0DF91CF911F910F9144
:10290000FF900C94CD0B8091430D81112AC0009152
:10291000320D1091330D25E130E04AE550E065E1DC
:1029200070E08AE190E00E947F1208E212E423E066
:1029300030E045E150E064E270E084EE94E00E9413
:10294000B21220E130E044E250E06AE070E08EE84C
:1029500090E00E947F12DF91CF911F910F91FF9025
:1029600008958091430D8130B1F70091320D10919F
:10297000330D25E130E04AE550E065E170E08AE1A1
:1029800090E00E947F1200EE1FEF23E030E045E16F
:1029900050E064E270E08CED94E00E94B21200918D
:1029A0003D0D10913E0DCDCF0F931F932091420D01
:1029B00021110EC08C0181E08093E20D20E130E016
:1029C00044E250E06AE070E08EE890E00E947F12FE
:1029D0001F910F910895CF92DF92EF92FF920F9384
:1029E0001F93CF93DF938034E1E09E07C8F4603FEC
:1029F0007105B0F479016C01EB018B01040F151F17
:102A0000C801003F110510F08FEE90E0C817D907FC
:102A100038F4A701BE01C6010E9450122196F0CFE2
:102A2000DF91CF911F910F91FF90EF90DF90CF90AA
:102A30000895CF92DF92EF92FF920F931F93CF935F
:102A4000DF938034E1E09E07D8F4603F7105C0F465
:102A500079018B01EC016C01C40ED51EC60120E486
:102A6000C21621E0D20610F08FE391E0C817D90713
:102A700038F4A701B801CE010E9450122196EECF82
:102A8000DF91CF911F910F91FF90EF90DF90CF904A
:102A900008952F923F924F925F926F927F928F9202
:102AA0009F92AF92BF92CF92DF92EF92FF920F93DD
:102AB0001F93CF93DF9300D01F92CDB7DEB76C0189
:102AC0007C836B837A0129010091B70A1091B80ABF
:102AD0009801A2010E94EB14520182E0A81AB108E9
:102AE0002B803C809FEF291A390A46018FEF881A04
:102AF000980A9801A501B101C4010E94EB146090ED
:102B0000B90A7090BA0AC6018E0D9F1D9A838983F7
:102B10009301A2016B817C810E94EB149301A501BA
:102B2000B10189819A8101970E94EB149801A70154
:102B30006B817C81C6010E941915570192E0A91A88
:102B4000B1089801A501B101C4010E9419150B81BA
:102B50001C81040D151D9301A701B801C6010E9437
:102B60001915B801615071099301A501C4010E94B2
:102B700019150091320D1091330D92012350310936
:102B8000A701435051096B817C816E5F7F4FC60165
:102B900002960E947F120F900F900F900F90DF917E
:102BA000CF911F910F91FF90EF90DF90CF90BF904A
:102BB000AF909F908F907F906F905F904F903F90DD
:102BC0002F9008952F923F924F925F926F927F9233
:102BD0008F929F92AF92BF92CF92DF92EF92FF922D
:102BE0000F931F93CF93DF9300D01F92CDB7DEB723
:102BF0006C017C836B837A0129010091B90A1091E1
:102C0000BA0A9801A2010E94EB14520182E0A81AAC
:102C1000B1082B803C809FEF291A390A46018FEFBB
:102C2000881A980A9801A501B101C4010E94EB1409
:102C30006090B70A7090B80AC6018E0D9F1D9A83E6
:102C400089839301A2016B817C810E94EB14930123
:102C5000A501B10189819A8101970E94EB14980125
:102C6000A7016B817C81C6010E941915570192E072
:102C7000A91AB1089801A501B101C4010E94191552
:102C80000B811C81040D151D9301A701B801C6011C
:102C90000E941915B801615071099301A501C40181
:102CA0000E9419150091320D1091330D920124509C
:102CB0003109A701445051096B817C816E5F7F4FC0
:102CC000C60102960E947F120F900F900F900F90F6
:102CD000DF91CF911F910F91FF90EF90DF90CF90F8
:102CE000BF90AF909F908F907F906F905F904F902C
:102CF0003F902F900895EF92FF920F931F93CF93E1
:102D0000DF9381E08093E20D2EE130E04CE350E070
:102D10006DEC70E082E890E00E94E215C091C70C73
:102D2000D091C80C8E0122E030E045ED50E067E81C
:102D300070E088EE94E00E94B2122CE230E048E2AB
:102D400050E068E070E08EE090E00E94E21524E040
:102D500030E042E150E068E170E08DEE94E00E94E6
:102D6000B2122CE230E048E250E068E070E08AE025
:102D700091E00E94E21524E030E042E150E062E19F
:102D800071E08FEE94E00E94B2122CE230E048EC49
:102D900050E068E070E08CE390E00E9449152CE27E
:102DA00030E048EC50E064E470E08CE390E00E9496
:102DB0004915E090CA0C0091010D1091020DEE0C26
:102DC000FF08F701E358FB4F22E030E044E150E018
:102DD00061E470E0808191810E94B212F701E95EA6
:102DE000FD4F8E0122E030E040E550E061E470E00C
:102DF000808191810E94B2122EE130E040E550E0E6
:102E00006DE770E088E790E00E94E21522E030E094
:102E100044E850E06CE770E081EF94E00E94B21269
:102E20001092CB0C22E030E04EEB50E06EEC70E004
:102E300088EF94E00E94B21222E030E04EEB50E0C6
:102E40006EEF70E08FE29AE00E94B21222E030E072
:102E500045ED50E06EEC70E08DEF94E00E94B21210
:102E600022E030E045ED50E064EF70E081E095E075
:102E70000E94B212DF91CF911F910F91FF90EF90BE
:102E800008952F923F924F925F926F927F928F920E
:102E90009F92AF92BF92CF92DF92EF92FF920F93E9
:102EA0001F93CF93DF93CDB7DEB72C970FB6F8946F
:102EB000DEBF0FBECDBF7C016B01422E1E830D8392
:102EC000822F8695282E312C8FE391E09C012219C8
:102ED00033093C832B8349835A83642C712CE98109
:102EE000FA818191FA83E983882309F45CC02B81FC
:102EF0003C812E153F0508F473018052990BAC01FB
:102F000024E0440F551F2A95E1F76CE0689F90017B
:102F1000699F300D1124DC86CB86470110E000E06C
:102F2000CA018C5A9C4F98878F83F901EC5BF64F4E
:102F3000FA87E9873CE0E985FA85431629F060E1E4
:102F4000461205C0EF81F885E00FF11F5490AB8465
:102F5000BC8488E0A80EB11C57FE07C04D815E817D
:102F60006B857C85C4010E945012550CEB85FC8555
:102F70003196FC87EB87CF018C199D09681679067D
:102F800061F4FFEF8F1A9F0ADC86CB860F5F1F4F1D
:102F9000041580F2E20CF31CA2CF2B853C852A1588
:102FA0003B05D1F6F3CF2C960FB6F894DEBF0FBEDB
:102FB000CDBFDF91CF911F910F91FF90EF90DF90E8
:102FC000CF90BF90AF909F908F907F906F905F90C9
:102FD0004F903F902F9008954F925F926F927F9203
:102FE0008F929F92AF92BF92CF92DF92EF92FF9219
:102FF0000F931F93CF93DF933C012C0181E0481A7C
:103000005108620186E0CC0CDD1C8A95E1F7C09185
:103010003D0AD0913E0A1092E20DE090B70AF0907E
:10302000B80A46018AE0880E911C97014EE150E0F3
:103030006BE070E0C4010E94EB1456018BE0A80E17
:10304000B11C97014CE150E06CE070E0C5010E94BA
:10305000EB140091B90A1091BA0A98014EE150E0C0
:103060006BE070E0C601C6960E94EB1498014CE13B
:1030700050E06CE070E0C601C5960E94EB14970129
:103080004CE250E06BE070E0C4010E94191597011A
:103090004AE250E06CE070E0C5010E941915980109
:1030A0004CE250E069E270E0C4010E9419159801F9
:1030B0004AE250E068E270E0C5010E9419150091F3
:1030C0003B0A10913C0A22E230E04DE251E06AE016
:1030D00070E089E090E00E947F1283E0481651047E
:1030E00008F0A5C003E110E09E0142E150E069E173
:1030F00070E0C8010E94EB14085C1F4F033681E0AA
:10310000180791F70FE210E09E014BE050E060E2FB
:1031100070E0C8010E94EB14085C1F4F073481E087
:10312000180791F7E090390AF0903A0A870122E0F7
:1031300030E04DE650E081E06816710409F022C1EC
:103140006DE470E086E095E00E94B21222E030E08B
:103150004DE650E06DE870E08AE095E00E94B21222
:1031600022E030E04DE650E06DEC70E08EE095E05E
:103170000E94B21222E030E04DE650E06DE071E0D6
:1031800082E195E00E94B2120091010D1091020DB2
:1031900022E030E04DE650E06DE070E086E195E041
:1031A0000E94B2128E0120E142E255E069E070E037
:1031B00080E190E00E9441170091370A1091380A8F
:1031C0002CE04AE155E06BE070E08EE190E00E9477
:1031D00041178E0120E140E255E069E070E080E4B3
:1031E00090E00E94411720E144E255E069E070E080
:1031F00088E790E00E94411720E148E255E069E04D
:1032000070E080EB90E00E94411720E14CE255E035
:1032100069E070E088EE90E00E94411720E140E311
:1032200055E069E070E08EE191E00E944117C30132
:103230000497029708F095C0E090390AF0903A0A96
:10324000870122E030E04DE650E06DE070E084E080
:103250006816710409F081C186E195E00E94B212FE
:1032600022E030E04DE650E06DE470E086E095E06D
:103270000E94B21222E030E04DE650E06DE870E0CE
:103280008AE095E00E94B21222E030E04DE650E084
:103290006DE071E082E195E00E94B2120091010DB3
:1032A0001091020D22E030E04DE650E06DEC70E050
:1032B0008EE095E00E94B21203E110E09E014FE023
:1032C00050E06BE170E0C8010E94EB14045E1F4FF8
:1032D000073481E0180791F78E0120E142E255E0C2
:1032E00069E070E080E190E00E9441170091370AA8
:1032F0001091380A2CE040E455E06BE070E08EE17C
:1033000090E00E9441178E0120E146E455E069E01B
:1033100070E083E490E00E94411720E149E455E029
:1033200069E070E08BE790E00E94411720E14CE4F7
:1033300055E069E070E083EB90E00E94411720E1E6
:103340004FE455E069E070E08BEE90E00E94411799
:1033500020E142E555E069E070E083E291E00E94FF
:103360004117DF91CF911F910F91FF90EF90DF9068
:10337000CF90BF90AF909F908F907F906F905F9015
:103380004F9008956DE070E082E06816710409F0D6
:1033900074C086E195E00E94B21222E030E04DE672
:1033A00050E06DE870E08AE095E00E94B21222E001
:1033B00030E04DE650E06DEC70E08EE095E00E946C
:1033C000B21222E030E04DE650E06DE071E082E1C3
:1033D00095E00E94B2120091010D1091020D22E0C1
:1033E00030E04DE650E06DE470E086E095E00E944C
:1033F000B2128E0120E142E255E069E070E080E126
:1034000090E00E9441170091370A1091380A2CE091
:103410004AE155E06BE070E08EE190E00E944117D8
:103420008E0120E144E057E069E070E083E490E041
:103430000E94411720E144E355E069E070E08BE72A
:1034400090E00E94411720E147E355E069E070E019
:1034500083EB90E00E94411720E14AE355E069E0E8
:1034600070E08BEE90E00E94411720E14DE355E0C3
:1034700069E070E083E291E0D8CE86E195E00E94B9
:10348000B21222E030E04DE650E06DE470E086E0FC
:1034900095E00E94B21222E030E04DE650E06DEC83
:1034A00070E08EE095E00E94B21222E030E04DE63E
:1034B00050E06DE071E082E195E00E94B21200916F
:1034C000010D1091020D22E030E04DE650E06DE874
:1034D00070E08AE095E00E94B2128E0120E142E2A3
:1034E00055E069E070E080E190E00E9441170091B2
:1034F000370A1091380A2CE04AE155E06BE070E0A1
:103500008EE190E00E9441178E0120E147E455E0F2
:1035100069E070E088E490E00E94411720E14AE40D
:1035200055E069E070E080E890E00E94411720E1FA
:103530004DE455E069E070E088EB90E00E944117AF
:1035400020E140E555E069E070E080EF90E00E9406
:10355000411720E144E057E08BCF86E195E00E94DF
:10356000B21222E030E04DE650E06DE470E086E01B
:1035700095E00E94B21222E030E04DE650E06DE8A6
:1035800070E08AE095E00E94B21222E030E04DE661
:1035900050E06DEC70E08EE095E00E94B212009178
:1035A000010D1091020D22E030E04DE650E06DE09B
:1035B00071E082E195E00E94B21203E110E09E0109
:1035C0004FE050E06BE170E0C8010E94EB14025F35
:1035D0001F4F093381E0180791F78E0120E142E285
:1035E00055E069E070E080E190E00E9441170091B1
:1035F000370A1091380A2CE045E555E06BE070E0A1
:1036000088E290E00E9441178E0120E14BE555E0F1
:1036100069E070E086E590E00E94411720E144E017
:1036200057E069E070E087E990E00E94411720E1EF
:103630004AE555E069E070E08DED90E00E944117A9
:1036400020E144E355E087CEEF92FF920F931F9362
:10365000CF93DF931092E20D20E430E040E351E09D
:1036600068E070E087E090E00E9449152EE030E0CD
:103670004DE150E060E570E082E190E00E94491584
:103680002EE030E04DE150E060E570E082E590E052
:103690000E9449152EE030E04DE150E060E570E019
:1036A00082E990E00E9449152EE030E04DE150E0C3
:1036B00060E570E082ED90E00E9449152EE030E078
:1036C0004DE150E060E570E082E191E00E94491533
:1036D0002EE130E04CE250E064E670E08AE090E0F9
:1036E0000E94E215C091C70CD091C80C8E0122E057
:1036F00030E04DE650E06DE070E086E195E00E943C
:10370000B2122EE130E04CE250E064E670E08AE470
:1037100090E00E94E21522E030E04DE650E06DE4DA
:1037200070E086E095E00E94B2122EE130E04CE2BB
:1037300050E064E670E08AE890E00E94E21522E042
:1037400030E04DE650E06DE870E08AE095E00E94E0
:10375000B2122EE130E04CE250E064E670E08AEC18
:1037600090E00E94E21522E030E04DE650E06DEC82
:1037700070E08EE095E00E94B2122EE130E04CE263
:1037800050E064E670E08AE091E00E94E21522E0F9
:1037900030E04DE650E06DE071E082E195E00E949E
:1037A000B21280910D0D90E00E94EC1722E030E003
:1037B0004BE950E06AE070E08DE595E00E94B212BE
:1037C0002EE130E040E550E062E970E08FE390E008
:1037D0000E944915E090010DF090020D870122E052
:1037E00030E049E950E066E770E08DEC97E00E9438
:1037F000B2128E0122E030E04BE950E065EA70E061
:1038000082E695E00E94B2122EE130E040E550E001
:1038100062E970E086EE90E00E944915870122E09F
:1038200030E049E950E068E171E087E695E00E9408
:10383000B2128E0122E030E04DEC50E06AE070E020
:1038400089E695E00E94B2122EE130E040E550E0BA
:1038500064EC70E08FE390E00E94491522E030E0D4
:103860004DEC50E065EA70E08EE695E00E94B21201
:103870002EE130E040E550E064EC70E086EE90E050
:10388000DF91CF911F910F91FF90EF900C9449150C
:10389000CF92DF92EF92FF92CF93DF93EC0170E033
:1038A00060E090E080E00E94381260E082E20E94D6
:1038B0001312409A8091E20D81111CC04298C12CD4
:1038C0008CE2D82EEE24E394F12C8D2F0E940C1262
:1038D0008C2F0E940C1281E0C81AD108E108F1086F
:1038E000A1F7429A289ADF91CF91FF90EF90DF9055
:1038F000CF9008952898E3CFCF93DF93EC01EAE0CF
:10390000F1E0808180688083EBE0F1E08081806875
:103910008083389A409A3A9A429A209A289A6B9AC7
:10392000739860E08AEE0E942E1260E28BEE0E9495
:103930002E126CE08CEE0E942E1264EC8DEE0E9432
:103940002E1268E388EE0E942E1260E189EE0E943A
:103950002E1261E081EF0E942E1260E182EF0E9440
:103960002E1261E080E40E942E1260E081E40E9449
:103970002E1260E082E40E942E1260E183E40E9435
:103980002E126EE084E40E942E1264E285E40E940E
:103990002E1264E086E40E942E1260E587E40E9405
:1039A0002E1262E088E40E942E1263E189E40E94F4
:1039B0002E1269E18AE40E942E1269E18BE40E94D2
:1039C0002E1266E18CE40E942E126BE180E50E94CB
:1039D0002E1261E381E50E942E126FE282E50E94C1
:1039E0002E126FE383E50E942E126FE384E50E949E
:1039F0002E126EE385E50E942E126FE286E50E948C
:103A00002E126BE787E50E942E1269E088E50E947E
:103A10002E1266E089E50E942E1266E08AE50E9479
:103A20002E126CE08BE50E942E126DE18CE50E9457
:103A30002E126CEC8DE50E942E126BE18BE10E9440
:103A40002E1261E08AE10E942E126FE284E20E944F
:103A50002E1267E585E20E942E1268E883E20E943A
:103A60002E1264E388E10E942E1261E089E10E9437
:103A70002E1260E081E00E942E1268E88FE10E9421
:103A80002E1265E070E080E090E00E94CD0B60E8CF
:103A90008FE10E942E1265E070E080E090E00E94CD
:103AA000CD0B60E98FE10E942E1265E070E080E0AE
:103AB00090E00E94CD0B60ED8FE10E942E1265E038
:103AC00070E080E090E00E94CD0B65E087E10E940D
:103AD0002E1260E086E30E942E1268E388E20E94C4
:103AE0002E1268E270E080E090E00E94CD0B6FE360
:103AF00088E20E942E1268E186E10E942E1260E0A8
:103B000082E00E942E1260E083E00E942E1260E0AC
:103B100084E00E942E126FEE85E00E942E1260E07B
:103B200086E00E942E1260E087E00E942E1261E083
:103B300088E00E942E126FE389E00E942E1261E05D
:103B400070E080E090E00E94CD0BCE010E94481C06
:103B5000739ADF91CF9108952F923F924F925F9287
:103B60006F927F928F929F92AF92BF92CF92DF928D
:103B7000EF92FF920F931F93CF93DF9300D01F928A
:103B8000CDB7DEB7FC012081222309F4A0C09C83BD
:103B90008B830E94C8082B013C01EB81FC8181854D
:103BA0009285A385B485A3019201281B390B4A0B8A
:103BB0005B0BDA01C9010397A105B10508F487C0C1
:103BC00081E591E00E94DF0860E0EB81FC8181816A
:103BD0000E94460B81EB0E940C1281EC90E00E9447
:103BE000440E8C0163E0169507956A95E1F7015044
:103BF000104F81E990E00E94440E73E096958795FE
:103C00007A95E1F7081B190B0039F1E01F070CF456
:103C10004AC081E990E00E94440E81ED90E00E944C
:103C2000440E5C0123E0B694A7942A95E1F781E95C
:103C300090E00E94440E6C0133E0D694C7943A950C
:103C4000E1F781ED90E00E94440E4C0143E0969430
:103C500087944A95E1F781E990E00E94440E1C01A7
:103C600053E0369427945A95E1F780ED90E00E9456
:103C7000440E7C0190E080E00E94440E9A83898388
:103C800061E0EB81FC8181810E94460B17FF14C02B
:103C9000EB81FC8110861782EB81FC8182818F3F52
:103CA000B1F0108214C0312C212C912C812CD12CFC
:103CB000C12CB12CA12CD9CF0039F1E01F07F4F4AD
:103CC000EB81FC81108617820B3411052CF30F90C9
:103CD0000F900F900F90DF91CF911F910F91FF9058
:103CE000EF90DF90CF90BF90AF909F908F907F909C
:103CF0006F905F904F903F902F900895EB81FC81E3
:103D000010870783A70183E0569547958A95E1F7C9
:103D1000B401C5010E94120E8C0149815A8193E0C1
:103D2000569547959A95E1F7B101C6010E94120E8A
:103D3000EB81FC81418652866386748614830383FB
:103D400096838583C4CFCF93DF93EC01F8940E94D0
:103D5000AC1D789481E02F813885203931400CF4F6
:103D600080E0DF91CF910895CF93C82FF8948DE52F
:103D700091E00E94DF088C2F0E940C1261E089E123
:103D80000E94460B7894CF910895CF93DF93EC0176
:103D90009A01AB01E889F98982E08083211581EEDF
:103DA00038074105510599F160E079E08DE390E035
:103DB0000E943249BA01A9014150510961097109B2
:103DC0007695679557954795CA01EC85FD85908353
:103DD000EE85FF858083188EEC89FD8986E08083DF
:103DE000EA89FB89808180618083EA89FB898081FF
:103DF00088608083EA89FB89808180688083EA8982
:103E0000FB8980818F7D8083DF91CF910895E88940
:103E1000F989108280E190E0D8CFCF93C82F8DE14F
:103E20009FE00E946F0AC23089F130F4CC23A1F0E8
:103E3000C13009F1CF910895C430F1F190F1C5304E
:103E4000C9F740E052EC61E070E08DE19FE00E9434
:103E5000C51E89EC95E00AC040EC52E160E070E0DC
:103E60008DE19FE00E94C51E84E795E090932402B7
:103E700080932302DFCF40E855E260E070E08DE1FF
:103E80009FE00E94C51E85E895E0F0CF40E05BE42E
:103E900060E070E08DE19FE00E94C51E86E995E03C
:103EA000E5CF40E056E960E070E08DE19FE00E94E0
:103EB000C51E87EA95E0DACF40E051EE60E070E0A1
:103EC0008DE19FE00E94C51E88EB95E0CFCFCF9398
:103ED000C82F80E89EE00E946F0AC23089F130F45A
:103EE000CC23A1F0C13009F1CF910895C430F1F194
:103EF00090F1C530C9F740E052EC61E070E080E835
:103F00009EE00E94C51E89EC95E00AC040EC52E19B
:103F100060E070E080E89EE00E94C51E84E795E0C6
:103F20009093180280931702DFCF40E855E260E0DB
:103F300070E080E89EE00E94C51E85E895E0F0CF25
:103F400040E05BE460E070E080E89EE00E94C51E17
:103F500086E995E0E5CF40E056E960E070E080E872
:103F60009EE00E94C51E87EA95E0DACF40E051EE60
:103F700060E070E080E89EE00E94C51E88EB95E05E
:103F8000CFCFFB0101900020E9F73197AF01461B2D
:103F9000570B0C94E2088F929F92AF92BF92EF92D0
:103FA000FF920F931F93CF93DF93CDB7DEB7A19707
:103FB0000FB6F894DEBF0FBECDBF7C01FA01CB0176
:103FC00019A2223008F42AE08E010F5D1F4F822EC5
:103FD000912CB12CA12CBF01A50194010E94324962
:103FE000F901CA016A300CF5605DD8016E938D014C
:103FF000232B242B252B79F790E080E0109721F0DC
:10400000BD01C7010E94C11FA1960FB6F894DEBF83
:104010000FBECDBFDF91CF911F910F91FF90EF9019
:10402000BF90AF909F908F900895695CDECF0F9303
:104030001F93CF93DF93EC010E94C11F8C016AEDA7
:1040400075E0CE010E94C11F800F911FDF91CF91BB
:104050001F910F910895813031F46DED75E08DE180
:104060009FE00C941720823029F46DED75E080E814
:104070009EE0F7CF08950F931F938091420D811119
:1040800021C081E08093E20D0091320D1091330D3B
:1040900025E130E046E350E06EE870E084EF90E028
:1040A0000E947F128091D80C81110FC008E212E4A7
:1040B00023E030E04EE850E064EF70E08FED95E0F3
:1040C0000E94B2121F910F910895E0915602F0E004
:1040D000E453F34F8081811114C000913D0D109184
:1040E0003E0D23E030E04EE850E064EF70E083EEF8
:1040F00095E00E94B21267EE75E083EE9DE00E94AB
:104100001720E0915602F0E0E453F34F80818130B4
:10411000C9F60091390D10913A0D23E030E04EE8D8
:1041200050E064EF70E08CED94E00E94B2126BEE10
:1041300075E083EE9DE01F910F910C9417200F9373
:104140001F938091420D811176C081E08093E20D32
:104150000091320D1091330D25E130E040E150E047
:104160006EE870E08BE290E00E947F12E0915602D0
:10417000F0E0E75DFD4F80818130E1F40091430A7A
:104180001091440A1093420A0093410A23E030E060
:104190004EE850E069E270E080EE96E00E94B212D4
:1041A0006FEE75E083EE9DE00E94172060E081E2F3
:1041B0000E94460BE0915602F0E0E75DFD4F8081E2
:1041C0008230E1F400913F0A1091400A1093420AB4
:1041D0000093410A23E030E04EE850E069E270E0ED
:1041E00087E495E00E94B21263EF75E083EE9DE0F4
:1041F0000E94172061E081E20E94460B80915602E6
:104200006091410A7091420A0E9458138091D80C23
:10421000882389F081E08093E20D0091320D1091A6
:10422000330D25E130E04AE450E06EE870E089E7C4
:1042300090E00E947F121F910F9108950F931F939A
:10424000CF93DF9381E08093E20D22E330E046E7F5
:1042500050E061E470E085E090E00E94E21522E326
:1042600030E04AE350E061E470E085EC90E00E94C9
:10427000E21522E330E04AE350E061E470E081E0DF
:1042800091E00E94E21522E330E048E550E069EB5E
:1042900070E085E090E00E94E21522E330E048E51E
:1042A00050E069EB70E083EE90E00E94E2158091AF
:1042B000D80C2EE130E04CE350E08111BBC067E840
:1042C00070E082E890E00E94E21522E330E046E7E9
:1042D00050E068E070E085E090E00E94491522E33C
:1042E00030E046E750E068E070E085EC90E00E9446
:1042F000491522E330E048E550E060E870E085E0F1
:1043000090E00E94491522E330E048E550E060E883
:1043100070E083EE90E00E94491524E130E048E22D
:1043200050E068E070E08CE890E00E9449158091D0
:104330003D0D90913E0D0E94D4148091420D81114B
:1043400062C0C091C70CD091C80C81E08093E20D8F
:104350008091430D813091F48091400D81110EC008
:104360000091010D1091020D23E030E045E150E095
:1043700064E270E08CED94E00E94B2128E0123E0C2
:1043800030E04FE450E06AE170E087EF95E00E9492
:10439000B21223E030E04FE450E06BED70E08DEEC0
:1043A00094E00E94B21223E030E04FE450E067E175
:1043B00071E08FEE94E00E94B21223E030E047EC0F
:1043C00050E065E170E08CEF95E00E94B2128091C0
:1043D000D80C81114AC022E030E04FE850E067E895
:1043E00070E080E096E00E94B2120091C70C10913C
:1043F000C80C23E030E047EC50E064EF70E088E167
:1044000098E00E94B2120E942414809156028823E0
:1044100009F444C0809156026091010D7091020D23
:104420000E9458130E949F20DF91CF911F910F91FE
:104430000C943B2065E570E082E890E00E94E21574
:1044400022E330E048E550E069EB70E084E790E07B
:104450000E94E21522E330E048E550E060E870E0B9
:1044600084E790E00E94491530CF22E030E04DE52E
:1044700050E067E870E080E096E00E94B21223E02E
:1044800030E047EC50E06AE770E085E096E00E949B
:10449000B2120091010D1091020DABCF8091560226
:1044A00060E078EFBDCF82E390E0A0E0B0E08093E1
:1044B000E70D9093E80DA093E90DB093EA0D67E244
:1044C0007AE083EE9DE00E9417206CE170E083E1CA
:1044D0000E944B09FC01E654F24F1082089581308E
:1044E00039F48DE19FE00C94C11F80E89EE0FBCF82
:1044F0008230D9F30895CF92DF92EF92FF920F931B
:104500001F93CF93DF93D82F0E94A3086B017C01E8
:104510008091900D811165C0CD2F81E08093900D29
:1045200080938F0D9FEF90938E0D10928D0D9D0FA8
:1045300090938C0D80936B0D80916B0D8E6D80939D
:104540006B0D80916A0D813009F07FC010926A0D69
:104550000E94A3086B017C0180916B0D8093BB00CE
:104560008091920D9091930DA091940DB091950D25
:10457000892B8A2B8B2BA1F00E94A3080091920D0E
:104580001091930D2091940D3091950D6C197D092A
:104590008E099F09061717072807390708F442C034
:1045A0008091BC0083FDD8CF85EC8093BC000E9435
:1045B000A3086B017C018091900D813009F447C004
:1045C00080918D0D8D1710F4C0918D0DACE6BDE07E
:1045D000EAE4FDE080E08C1751F19D9191938F5FAB
:1045E000FACF8091920D9091930DA091940DB0917E
:1045F000950D892B8A2B8B2B09F48ACF0E94A30857
:104600000091920D1091930D2091940D3091950D84
:104610006C197D098E099F090617170728073907A6
:1046200008F076CF8091910D0E94700CC0E010923E
:10463000490DC093480D8C2FDF91CF911F910F91A1
:10464000FF90EF90DF90CF90089585EEAECF8091F0
:10465000920D9091930DA091940DB091950D892B91
:104660008A2B8B2B09F4A7CF0E94A3080091920DEF
:104670001091930D2091940D3091950D6C197D0939
:104680008E099F09061717072807390708F093CFE7
:10469000C9CFCF93C1E0C093960D8FE68093B80D3C
:1046A0001092970D1092B90D83E090E00E94090ED0
:1046B00082E090E00E94090E81E00E94910C82E06D
:1046C00090E00E947B2261E070E080E090E00E9438
:1046D000CD0B60E084E00E94460B8091C60C0E94E6
:1046E000B41E60E08FE10E94460BC093400D109213
:1046F000470D0E9424141092E20DCF910895CF939C
:10470000C1E0C093960D8FE68093B80D1092970D7F
:104710001092B90D84E090E00E94090E80E00E94A2
:10472000910C82E090E00E947B2261E070E080E0EA
:1047300090E00E94CD0B8AEB9FE00E94930D6AE00F
:1047400070E080E090E00E94CD0BC093960D109237
:10475000970D1092B90D81E090E00E94090E82E061
:1047600090E00E94090E81E00E94910C82E090E0AE
:104770000E947B2261E070E080E090E0CF910C9499
:10478000CD0BCF93DF9381E08093960D8FE68093DE
:10479000B80D1092970D1092B90D84E190E00E942F
:1047A000090E80E00E94910C82E090E00E947B2242
:1047B00061E070E080E090E00E94CD0B8AEB9FE02A
:1047C0000E94930DEC018AEB9FE00E94930D94E010
:1047D000CC0FDD1F9A95E1F7C07FDF7082958F7057
:1047E0008C0F9D2F911DDF91CF910895CF93DF9373
:1047F00081E08093960D8FE68093B80D1092970D0F
:104800001092B90D8EE190E00E94090E80E00E94A6
:10481000910C82E090E00E947B2261E070E080E0F9
:1048200090E00E94CD0B8AEB9FE00E94930DEC017B
:104830008AEB9FE00E94930D94E0CC0FDD1F9A95C8
:10484000E1F7C07FDF7082958F708C0F9D2F911DD7
:10485000DF91CF910895AB01813089F4052E000CD2
:10486000660B770B2AE08DE19FE00C94CB1F052EA1
:10487000000C660B770B2AE080E89EE0F6CF8230D2
:10488000B1F308950F931F9310923F0D60E084E001
:104890000E94460B1092470D1092310D1092300D70
:1048A00010922B0D10922A0D1092270D1092260DAA
:1048B0001091C60C60E089E10E94460B8DE591E005
:1048C0000E94DF08812F0E940C1261E089E10E94A2
:1048D000460B60E08FE10E94460B80913D0D909168
:1048E0003E0D0E94D4140E947F2360E087E10E9465
:1048F000460B61E070E080E090E00E94CD0B61E04B
:1049000087E10E94460B1092E20D00913B0D109141
:104910003C0D22E030E04BEC50E066E470E081E5D5
:1049200092E00E94B21261E572E08CE492E00E9493
:10493000BB491092340D1F910F910895CF93DF93CF
:10494000C1E0C0933F0D61E08FE10E94460BD09122
:10495000C60C60E089E10E94460B8DE591E00E9463
:10496000DF0880E18D0F0E940C1261E089E10E9456
:10497000460B61E084E00E94460BC093470DC09354
:104980002F0DC093290DC093250DC0931E0DC0930C
:10499000180D10922E0D1092280D1092230D1092CA
:1049A0001D0D1092170D8BE00E941D0B892BF9F045
:1049B0008091370D9091380D0E94D41460E087E10A
:1049C0000E94460B61E070E080E090E00E94CD0B19
:1049D00061E087E10E94460B61E572E08CE492E0C1
:1049E0000E94BB491092340DDF91CF9108958091C0
:1049F000230A9091240AE0CF85ED8093BC0080913A
:104A0000920D9091930DA091940DB091950D0796F4
:104A1000A11DB11D23E0B695A795979587952A9579
:104A2000D1F72091BC0024FD03C01092900D089591
:104A30004091920D5091930D6091940D7091950D50
:104A4000452B462B472B69F30097A105B10541F093
:104A50002AE22A95F1F700C00197A109B109E1CF37
:104A60008091910D0C94700C0C94F2480F931F934D
:104A7000CF93DF9381E08093E20DC091320DD0910E
:104A8000330D8E0125E130E04AE450E06EE870E03D
:104A900089E790E00E947F1225E130E04AE450E08F
:104AA00067EC70E089E790E00E947F120091010DB1
:104AB0001091020D23E030E047EC50E06AE770E02F
:104AC00085E096E00E94B2121092410D61E08DE205
:104AD0000E94460B6AE070E080E090E00E94CD0BFF
:104AE0001092BA0D82E390E0A0E0B0E08093E70D71
:104AF0009093E80DA093E90DB093EA0D6AE076E09B
:104B000083EE9DE00E94172065E070E083E10E9443
:104B10004B096DE076E081E592E00E94BB49E091AF
:104B2000BA0DE093470AE154E43108F031C00E2E8B
:104B3000000CFF0B8827E056FA4D8F4F0C949B49D1
:104B40000126C825C825C825DA25B425C825E725A6
:104B5000C825C825C825F425C825C825C825C825C1
:104B6000C825C8250E260E260091370D1091380D48
:104B700022E030E04EE850E06AE770E082E196E043
:104B80000E94B212E0915602F0E0E453F34F10821B
:104B9000E091560280915602F0E0E453F34F90E02A
:104BA000608147960E943425DF91CF911F910F912C
:104BB0000C9442240091370D1091380D22E030E022
:104BC0004EE850E06AE770E089E196E0D9CF0091C5
:104BD000390D10913A0D22E030E04EE850E06AE7DE
:104BE00070E080E296E0CCCF0091390D10913A0D43
:104BF00022E030E04EE850E06AE770E087E296E0BD
:104C0000BFCF00913D0D10913E0D22E030E04EE807
:104C100050E06AE770E08EE296E0B2CF00913D0D81
:104C200010913E0D22E030E04EE850E060E870E088
:104C300085E396E00E94B212E0915602F0E0E45360
:104C4000F34F81E0808382E390E0A0E0B0E08093C6
:104C5000E70D9093E80DA093E90DB093EA0D6BE397
:104C600076E083EE9DE00E94172068E070E083E12B
:104C70000E944B098091BA0D8053E091BC0DE05326
:104C800094E6899FE00D11248091BB0D80539AE03A
:104C9000899FE00D1124F0E0EE0FFF1FE95AFD4F50
:104CA000808191812AE030E0B9010E947349CB01F3
:104CB000B9010E9487499F938F937F936F938EE3EF
:104CC00096E09F938F931F9285E08F9381E592E00A
:104CD0009F938F930E94EB491092E20D0091320D49
:104CE0001091330D20E130E044E250E06BEC70E0D5
:104CF00086E490E00E947F1200913B0D10913C0DE4
:104D000022E030E04BEC50E066E470E081E592E0B8
:104D10000E94B21261E572E08CE492E00E94BB490D
:104D20008DB79EB70A960FB6F8949EBF0FBE8DBF83
:104D30002FCFEF92FF920F931F93CF9380E490E1D8
:104D40000E94A31E8111FACFC1E0C093E20DE09052
:104D5000320DF090330D870125E130E04AE450E058
:104D60006EE870E089E790E00E947F1225E130E074
:104D70004AE450E067EC70E089E790E00E947F121F
:104D80008091410D811157C08091D70C811104C0D1
:104D9000C093D70C0E943B200091C70C1091C80C07
:104DA00023E030E047EC50E06AE770E085E496E00D
:104DB0000E94B2120091390D10913A0D22E030E0BC
:104DC0004EE850E06AE770E08AE496E00E94B21292
:104DD00081E08093410D8091470D8823E9F0109286
:104DE0003F0D60E084E00E94460B1092470DC09199
:104DF000C60C60E089E10E94460B8DE591E00E94BF
:104E0000DF088C2F0E940C1261E089E10E94460BA2
:104E100060E08FE10E94460B60E08DE20E94460B4D
:104E200065E070E080E090E0CF911F910F91FF90DE
:104E3000EF900C94CD0BCF911F910F91FF90EF90BD
:104E40000C943625CF93C82F8FEF8C0F823078F4D7
:104E500061E087E00E94460BC13071F060E086E0BF
:104E60000E94460B60E086E00E94740B0DC060E07B
:104E700087E00E94460BF2CF61E086E00E94740B4F
:104E800061E086E00E94460B8CEF8C0F833058F473
:104E900081E596E0909318028093170280E89EE0E7
:104EA000CF910C946F0A8091460A0E94671FC3300D
:104EB00069F482E08093460A62E082E190E00E9419
:104EC00034258091460ACF910C94671FC73029F48E
:104ED00083E08093460A63E0F0CFCF910895CF92AC
:104EE000DF92EF92FF920F931F93CF93DF93D82F10
:104EF000C62F81E08093E20DCD2ED12C0091320D92
:104F00001091330D7601EE0CFF1CF701E95EFD4FA9
:104F100022E030E040E550E061E470E08081918182
:104F20000E94B212D93090F5F6018827E556F84D67
:104F30008F4F0C949B49A427E8274828A728FF27D0
:104F4000C6272728C62778288091DC0C8430F1F00A
:104F50008091460AC130D1F58F5F8093460A8091D7
:104F6000460A863011F41092460A8091460A8F3F15
:104F700019F485E08093460A6091460A82E190E048
:104F80000E9434258091460A0E94671F64E670E003
:104F900080E090E00E94CD0B0091010D1091020D78
:104FA000F701E95EFD4F22E030E040E550E061E4CA
:104FB00070E0808191810E94B212DF91CF911F91A8
:104FC0000F91FF90EF90DF90CF9008958150C5CF63
:104FD000C093480A6091480A82E090E00E9434251C
:104FE0002091480A8091190290911A0262E676E0B7
:104FF000211102C063E776E00E94BB49C7CFC0938E
:1050000036026C2F80E190E00E94342580913602B8
:105010008823D9F083E41F928F9384E896E09F93CE
:105020008F931F9281E18F93809120028F938091C3
:105030001F028F930E94EB498DB79EB708960FB65B
:10504000F8949EBF0FBE8DBFA1CF86E4E4CF8091C0
:10505000450AC130D9F48F5F8093450A8091450A93
:10506000863011F41092450A8091450A8F3F19F459
:1050700085E08093450A6091450A85E190E00E94B1
:1050800034258091450A0E940D1F80CF8150E4CFC6
:105090008091DC0CC13051F58F5F8093DC0C8091E6
:1050A000DC0C883011F41092DC0C8091DC0C8F3F0A
:1050B00019F487E08093DC0CC091DC0CEC2FF0E05D
:1050C000EE0FFF1FE95AFB4F6081718180911B0237
:1050D00090911C020E94BB496C2F84E190E00E94D9
:1050E00034258091DC0C0E94222750CF8150D5CFEF
:1050F0008091C90C811107C086E996E0909328023F
:105100008093270243CF8091240D8823B1F0109221
:10511000240D60E086E10E94460B87EA96E09093BA
:105120002802809327026091240D83E290E00E9480
:10513000342585E08093230D29CF81E08093240DD1
:1051400061E086E10E94460B88EB96E0E8CF809113
:10515000130290911402A0911502B0911602C13071
:1051600009F067C00196A11DB11D809313029093B1
:105170001402A0931502B09316028091130290912D
:105180001402A0911502B09116028E379105A10567
:10519000B10564F08DE790E0A0E0B0E080931302E9
:1051A00090931402A0931502B093160280911302FB
:1051B00090911402A0911502B09116028B349105C2
:1051C000A105B10564F48BE490E0A0E0B0E0809329
:1051D000130290931402A0931502B09316026091EB
:1051E000130286E190E00E943425809116028F938D
:1051F000809115028F93809114028F9380911302F6
:105200008F9389EC96E09F938F931F9281E18F9308
:1052100080911E028F9380911D028F930E94EB4913
:105220008DB79EB70A960FB6F8949EBF0FBE8DBF7E
:10523000ADCE0197A109B10998CF0F931F93CF93DA
:10524000809156028B3008F0AFC08091470D8111DC
:10525000ABC0E0915602EB30C0F4F0E08827EC5C84
:10526000F64D8F4F0C949B493F294729A529A82922
:10527000AB29B329B629BE29C129C929D1296AED8B
:1052800076E083EE9DE00E941720C0E007C06EED3F
:1052900076E083EE9DE00E941720C0E28091D80C5A
:1052A0008823F9F08091420D81111BC0E0915602D4
:1052B000F0E0E453F34F80818093D70C81E080933A
:1052C000E20D0091320D1091330D25E130E04AE4FA
:1052D00050E06EE870E089E790E00E947F120E9443
:1052E0003B20C093C60C80915602C091B50A8C1722
:1052F00009F45AC08091C60C0E94B41E81E08093CC
:10530000E20D6091320D7091330D8C2F0E94581375
:10531000809156028093B50A809156026091410AAD
:105320007091420A0E9458136091560281E090E009
:105330000E9434250E949F2064E170E080E090E0AC
:10534000CF911F910F910C94CD0B62EE76E0A1CF1F
:1053500066EE76E09ECF6AEE76E083EE9DE00E94F8
:105360001720C8E09BCF6EEE76E0F7CF62EF76E0D5
:1053700083EE9DE00E941720C4E090CF66EF76E0B8
:10538000F7CF6AEF76E083EE9DE00E941720C2E03F
:1053900085CF6EEF76E083EE9DE00E941720C1E09E
:1053A0007DCF62E077E06DCFCF911F910F9108958F
:1053B0000C94EA484F925F926F927F928F929F92E5
:1053C000AF92BF92CF92DF92EF92FF920F931F9313
:1053D000CF93DF93CDB7DEB7C055D1090FB6F894A0
:1053E000DEBF0FBECDBF8C019FE3E92E9BE0F92EFF
:1053F0000130110521F08DEBE82E8AE0F82EF7013F
:1054000001900020E9F731976F01CE18DF085701AE
:10541000F50181915F01082E000C990B0E94AA49A9
:10542000F50131978083C5018E199F09C816D906E9
:105430007CF767E077E0C7010E94D149009739F413
:105440006AE077E0C7010E94D149009771F1FC0141
:105450003496AAE4BAE00A9621912D938E179F07FD
:10546000D9F71092500A8AE49AE00E946D484B01E5
:105470005C01F6ED8F1AF6E09F0AA108B1082FE54E
:10548000821621E09206A104B10408F089C38AE0E3
:1054900080935602809156029091490A891709F427
:1054A00013C4809156028093490A6DE077E0C701EA
:1054B0000E94D149892B09F456C460E177E0C70105
:1054C0000E94D149FC01892BF9F094819B3309F0AA
:1054D00003C460E177E0802F0E946F226091560242
:1054E00070E0802F0E942B24802F0E942B2080911F
:1054F00056028B3010F01092560290915602809115
:10550000B50A98130E941D2965E177E0C7010E9442
:10551000D1496C01009729F1FC0184818B3371F42E
:1055200065E177E0802F0E946F226091430D70E06B
:10553000802F0E942B24802F0E942B20F601848133
:10554000803321F41092430D0E942414F6018481CB
:10555000813339F481E08093430D1092400D0E9415
:1055600024146AE177E0C7010E94D1496C010097D9
:1055700009F448C0FC0184818B3391F46AE177E03F
:10558000802F0E946F22E0915602F0E0E75DFD4F10
:10559000608170E0802F0E942B24802F0E942B209E
:1055A000F60184818133A9F4E0915602F0E0E75DD1
:1055B000FD4F81E08083E091560280915602F0E039
:1055C000E75DFD4F90E0608103960E9434250E94C4
:1055D0009F20F60184818233A9F4E0915602F0E025
:1055E000E75DFD4F82E08083E09156028091560294
:1055F000F0E0E75DFD4F90E0608103960E94342566
:105600000E949F206FE177E0C7010E94D1496C01A1
:10561000009771F1FC0184818B3399F46FE177E09D
:10562000802F0E946F22809136026CE376E08823FF
:1056300011F064E277E0802F0E946F22802F0E9499
:105640002B20F6018481863439F41092360260E012
:1056500080E190E00E943425F6018481833441F496
:1056600081E08093360261E080E190E00E94342581
:1056700066E277E0C7010E94D1496C01009709F406
:105680004CC0FC0184818B3399F466E277E0802F73
:105690000E946F228091480A64E175E0882311F02E
:1056A0006DE177E0802F0E946F22802F0E942B20D7
:1056B000F60184818434B1F41092480A6091480A5A
:1056C00082E090E00E94342563E776E08091190241
:1056D00090911A020E94BB490E94DC0F0E94241B79
:1056E0000E941E21F60184818E34B9F481E08093FA
:1056F000480A6091480A82E090E00E94342562E600
:1057000076E08091190290911A020E94BB490E9492
:10571000DC0F0E94241B0E941E216BE277E0C70170
:105720000E94D149892B39F16BE277E0802F0E94EA
:105730006F220E94F62368E270E00E9473497F9313
:105740006F9380E397E09F938F931F9284E08F93F2
:10575000CE0101966C019F938F930E94EB49B60195
:10576000802F0E946F22802F0E942B200FB6F8946A
:10577000DEBF0FBECDBF64E377E0C7010E94D14911
:10578000892B71F064E377E0802F0E946F22609193
:10579000D80C70E0802F0E942B24802F0E942B2099
:1057A00069E377E0C7010E94D1496C01009709F4D1
:1057B00047C0FC0184818B3371F469E377E0802F6B
:1057C0000E946F226091D70C70E0802F0E942B24E2
:1057D000802F0E942B20F60184818133B9F481E06F
:1057E0008093D70CE0915602F0E0E453F34F8083AE
:1057F000E091560280915602F0E0E453F34F90E0BE
:10580000608147960E9434250E943B20F6018481E6
:105810008033B1F41092D70CE0915602F0E0E453DB
:10582000F34F1082E091560280915602F0E0E4536B
:10583000F34F90E0608147960E9434250E943B2000
:105840006EE377E0C7010E94D149892B29F080914E
:10585000D80C81110E94992663E477E0C7010E9469
:10586000D149892B89F063E477E0802F0E946F2271
:105870006091470A013009F08EC28DE19FE00E94DD
:105880004D0A802F0E942B2068E477E0C7010E9418
:10589000D149892B71F068E477E0802F0E946F2254
:1058A0006091410D70E0802F0E942B24802F0E9478
:1058B0002B206DE477E0C7010E94D149892B09F4C0
:1058C00044C06091150D7091160D809136028111C2
:1058D00012C229E0269FC001279F900D112465E088
:1058E00070E00E947349CB01805C9E4F6AE070E0DB
:1058F0000E948749D62EC72E6DE477E0802F0E9444
:105900006F2280913602882309F4F7C183E41F9245
:105910008F93CF92DF9282E597E09F938F931F92B0
:1059200084E08F93CE0101966C019F938F930E9428
:10593000EB49B601802F0E946F22802F0E942B20FE
:105940000FB6F894DEBF0FBECDBF67E577E0C701A5
:105950000E94D149009791F1FC01D480F6E4DF1652
:1059600009F4CDC122E581E0D21621F084E4D812F9
:1059700015C282E00E94FA0E9F938F938D2D0D2CFD
:10598000000C990B9F93DF928CE597E09F938F9388
:105990001F928AE08F93FE0131966F01FF93EF9380
:1059A0000E94EB49B601802F0E946F22802F0E9437
:1059B0002B200FB6F894DEBF0FBECDBF67E677E0B1
:1059C000C7010E94D149892B09F493C080E00E944D
:1059D000FA0ED82EC92E81E00E94FA0EB82EA92EFA
:1059E00082E00E94FA0E982E892E83E00E94FA0E21
:1059F000782E692E0E94F62368E270E00E947349B7
:105A0000562E472E0E94C12364E170E00E94734924
:105A10009B018091150D9091160D6AE070E00E9437
:105A200073498091360281110CC049E0469FC00144
:105A3000479F900D112465E070E00E947349605EFD
:105A40007F4FE0915602909156028091430D409114
:105A5000D70C1F924F934091410D1F924F9340914D
:105A6000180D1F924F9340911E0D1F924F9340911E
:105A7000250D1F924F934091290D1F924F934091F6
:105A80002F0D1F924F934091470D1F924F93F0E0BF
:105A9000E75DFD4F40811F924F931F929F931F928E
:105AA0008F937F936F933F932F934F925F926F9259
:105AB0007F928F929F92AF92BF92CF92DF928CE6AD
:105AC00097E09F938F931F9280E58F93FE0131960D
:105AD0006F01FF93EF930E94EB490FB6F894DEBF7E
